:100000000C94F3010C9410020C9410020C94100246
:100010000C9410020C9410020C9410020C94100218
:100020000C9410020C9410020C9402180C943E17BD
:100030000C94D40E0C9410020C9410020C94100228
:100040000C9410020C9410020C9410020C941002E8
:100050000C9410020C94A20E0C9410020C9410023A
:100060000C9410020C9410020C9410020C941002C8
:100070000C9410020C9410020C9410020C941002B8
:100080000C9410020C9410020C9410020C941002A8
:100090000C9410020C9410020C9410020C94100298
:1000A0000C9410020C9410020C9410020E04100414
:1000B0001B0412041404160418041A041D041F045B
:1000C00021042C0423042504270429042B042E04D2
:1000D000D004D0040E050E054A055307FA0653074F
:1000E0006A055307570657066406640664066406E5
:1000F00064066406640664066406640664066406B0
:10010000640664066406640675069D06A206A906D2
:10011000C10618081B081E082108240827082A08F9
:10012000011106111011041109110E110C114F15B6
:100130007615161776151617BE15E1151617DF1664
:10014000F216DF1BDF1BF21BF21BE81BF21BF21B7C
:10015000F21BDF1BDF1BED1BF21BF21BED1B35003F
:100160002B00E000E100010000001E00140004006C
:100170001D00010001001F001A0016001B000100F5
:10018000E000200008000700060001002C0021000C
:1001900015000900190000040100220017000A00E0
:1001A00005000000015123000100000001000000D3
:1001B0000100010001000000010000000100240016
:1001C0001C000B00110000000100250018000D00AC
:1001D0001000E700010026000C000E0036000100B0
:1001E0002800270012000F0037000100E5002D0055
:1001F000130033003800310001002E002F003400BE
:100200003000010000002900010001000100005C35
:1002100000003A00010001000100010001003B0064
:10022000010050000100010001003C00520051009B
:100230000100010001003D0001004F00010001002C
:1002400001003E00010001000100000001003F002C
:100250000100000001000000010001000100000099
:100260000100000001004000010001000100000049
:1002700001004100460049004C000100010042001D
:1002800047004A004D0001000100430048004B00B8
:100290004E0001000100440001002A00010001009D
:1002A00001004500010001000100010000000501FE
:1002B0000980A10185031601002603001A81002A86
:1002C0008300751095018100C0050C0901A101850D
:1002D00004160100269C021A01002A9C0275109542
:1002E000018100C005010906A1018505050719E086
:1002F00029E71500250195087501810205081901F6
:100300002905950575019102950175039101050770
:10031000190029EF1500250195F075018102C0052E
:10032000010906A101050719E029E7150025019536
:1003300008750181029501750881010508190129D7
:100340000595057501910295017503910105071940
:100350000029FF150026FF00950675088100C009D9
:10036000023B00020100A0FA0904000001030101A0
:100370000009211101000122400007058103080046
:100380000A09040100010300000009211101000114
:100390002271000705820320000A120110010000EB
:1003A0000008EDFE07130100010203010403300001
:1003B000000016034500720067006F0044006F00E4
:1003C0007800200045005A00000016034500720026
:1003D00067006F0044006F007800200045005A005D
:1003E00000000403090411241FBECFEFDAE0DEBFD2
:1003F000CDBF11E0A0E0B1E0EEE6FEE302C0059063
:100400000D92AC3BB107D9F722E0ACEBB1E001C0F3
:100410001D92A43EB207E1F70E943B1A0C94351FCF
:100420000C9400008F929F92AF92BF92CF92DF9276
:10043000EF92FF920F931F93CF93DF93CDB7DEB769
:1004400028970FB6F894DEBF0FBECDBFFC01F08039
:10045000118183819481892B09F45CC51F3F21F4AC
:100460000FEFF01609F456C56F0185E0DE01119615
:1004700001900D928A95E1F7F601228189819A8196
:10048000222349F00E94FE0F082F682F89819A814C
:100490000E94771003C00E944A10082F26E0129F86
:1004A000F001112434E5039FE00DF11D1124EF0D3F
:1004B000F11DEE0FFF1FE25AFE4F05911491F60158
:1004C0008281063FFCE51F07A1F5882309F422C5B8
:1004D0001CC01092BD01F60192810531FCE51F0799
:1004E00008F40CC10C3DECE51E0709F465C108F4E5
:1004F00013C10D3D3CE5130709F464C10E3D1C45D5
:1005000009F005C2992309F405C528960FB6F89499
:10051000DEBF0FBECDBFDF91CF911F910F91FF9036
:10052000EF90DF90CF90BF90AF909F908F900C9402
:10053000600F882319F1033E2CE51207C1F050F437
:10054000013E8CE5180781F0023E9CE51907B1F4E5
:1005500081E010C0043EECE51E0759F0053EFCE5C5
:100560001F0761F484E006C01092AB0205C082E070
:1005700001C083E08093AB020E944B0A17FF73C057
:10058000F6018281882309F46EC0809179028093FC
:10059000BC01109279028091AB02813071F048F079
:1005A0008230D1F08430F1F486EE0E94991D88E10A
:1005B00017C082EE0E94881C15C080ED97E00E9453
:1005C000271488E10E94881C88E10E942C1C80EC82
:1005D00097E00E94271406C082EE0E94881C87E5DF
:1005E0000E94991D8FE39CE90197F1F700C000007C
:1005F0007801E894F7F85CE0A52EB12CC7010A2C2D
:1006000002C0969587950A94E2F7282F2F7041F043
:10061000822F90E02A3010F44D9604C0069702C055
:1006200087E290E00E94991D94E0A91AB108ECEFCE
:10063000AE16EFEFBE0611F78091AB02813039F0B4
:1006400040F0823031F0843051F488E206C08CE210
:1006500004C082EE0E942C1C02C00E94991D809151
:10066000BC0180937902003FFCE51F07C1F188F4CB
:10067000083D3CE51307D9F0093D8CE51807D9F191
:10068000073D9CE5190709F024CF26E241EE61EE13
:1006900011C0023FECE51E0751F128F1033F2CE5A4
:1006A000120709F016CF27E246EE66EE03C027E2F6
:1006B00045EE65EEC60128960FB6F894DEBF0FBE74
:1006C000CDBFDF91CF911F910F91FF90EF90DF9001
:1006D000CF90BF90AF909F908F900C94950926E299
:1006E00040EE60EEE7CF27E244EE64EEE3CF26E291
:1006F00042EE62EEDFCF28E241E0DBCF02302CE5B4
:10070000120708F066C001153CE5130751F00130EF
:100710001C4509F448C0FBC006311C4509F4C3C0A0
:10072000F6C0992309F4F6C3109279020E94041CC2
:100730009FEFE4E3FCE09150E040F040E1F700C0BF
:100740000000F89481E08093E00080E28093D8007C
:100750001092C9008FE19EE40197F1F700C00000FC
:100760001DBA109268001CBC10BE1FBA10927A000D
:1007700010926E0010926F00109271001092720031
:100780001092C9001092BC0014B817B81AB81DB85E
:1007900010BA1092BC0015B818B81BB81EB811BA20
:1007A0000C94003FB7C3992309F4B4C38091D102DC
:1007B00081608093D102AEC3992309F4ABC3109238
:1007C000A802A8C3992309F4A5C382E08093A802D4
:1007D000A1C3992309F49BC080E090E00E94B41D5E
:1007E0008D3E9E4F11F00E94600F84E090E00E94C9
:1007F000AC1D90E09093BE028093BD02F801E350DF
:10080000FC45E231F10530F4EA5AFF4F8091BD0218
:100810000C94021E8091BD02816027C0826025C0B9
:10082000846023C0806121C080621FC080641DC0BD
:1008300080681BC08460886018C08E7F16C08D7F62
:1008400014C08B7F12C08F7E10C08F7D0EC08F7B37
:100850000CC08F770AC08B7F877F07C087FB22275A
:1008600020F991E0922790FB87F98093BD02609177
:10087000BD0284E090E00E94BA1D10927902289691
:100880000FB6F894DEBF0FBECDBFDF91CF911F91A1
:100890000F91FF90EF90DF90CF90BF90AF909F901F
:1008A0008F900C94041C80917902992389F0982FE1
:1008B0009A7A81E009F480E08093BE01811102C040
:1008C00069E201C065E387ED91E00E94280F0BC04B
:1008D0008091BE01811102C069E201C065E387ED2C
:1008E00091E00E94FD0E28960FB6F894DEBF0FBE71
:1008F000CDBFDF91CF911F910F91FF90EF90DF90CF
:10090000CF90BF90AF909F908F900C94B80FF6014E
:1009100000811181992349F0C8010E94FE0FF82E31
:10092000682FC8010E94771004C0C8010E944A10B5
:10093000F82EB8018F2D0E94510A182F382FF6017A
:10094000258122952F700281011110926E028091F3
:100950006C028770A9F0002399F080E2810F883043
:1009600078F082E02F8338879E830E944311809124
:100970006C028770EE24E3942F8138859E8181116B
:10098000E12CA92EA2944FE0A422B12CFCE0AF16DA
:10099000B10408F088C2F501E859FF4F0C94021E1B
:1009A000892F807F9F70F92E882319F0F29480EFB1
:1009B000F8220023B9F0FF2009F406C280E2810F7B
:1009C000883010F0311106C090917902F92AF09226
:1009D000790205C090916E02F92AF0926E020E948F
:1009E000B80FF2C1812F38870E942C1C3885FF2058
:1009F00009F459C2105EF094183010F0311106C09D
:100A000090917902F922F092790205C090916E02DC
:100A1000F922F0926E020E94B80F45C2492F407F22
:100A2000892F8F70403211F08295807F332319F027
:100A30003130E9F025C0002381F030916F0222238C
:100A400051F0213041F4982F932B391709F42BC220
:100A500090936F0228C2832B3FC1222319F02130CB
:100A600009F421C28E830E94B20F8E813BC1002304
:100A700021F0223008F017C22FC1211114C232C157
:100A8000002321F0222309F427C19EC1222309F467
:100A900029C1ACC1292F26952695237030E0211558
:100AA000310521F02130310559F0FDC1002319F045
:100AB000812F937002C080E090E00E94730901C210
:100AC000002319F0812F937002C080E090E00E9413
:100AD0005D09F7C1892F837009F071C00111EFC161
:100AE000812F829586958770880F880F412F4F70D0
:100AF00050E060E070E04A015B01082E04C0880C01
:100B0000991CAA1CBB1C0A94D2F714FF12C00FE058
:100B100010E020E030E004C0000F111F221F331F3F
:100B20008A95D2F7B901A8014095509560957095C6
:100B300003C040E050E0BA01969596959370892FD6
:100B400090E082309105E9F08330910579F10091D0
:100B5000700210917102209172023091730201971C
:100B600059F0482959296A297B29CB01BA01602308
:100B700071238223932320C0802A912AA22AB32A98
:100B800015C0482959296A297B29809170029091C2
:100B90007102A0917202B09173028A019B01082731
:100BA00019272A273B27C901B80106C0CB01BA0182
:100BB000682979298A299B290E947D1180C10023F7
:100BC00019F0892F817001C08695882309F477C1B7
:100BD000812F829586958770880F880F412F4F70DF
:100BE00050E060E070E04A015B01082E04C0880C10
:100BF000991CAA1CBB1C0A94D2F714FF12C00FE068
:100C000010E020E030E004C0000F111F221F331F4E
:100C10008A95D2F7B901A8014095509560957095D5
:100C200003C040E050E0BA01969596959370892FE5
:100C300090E082309105E9F08330910579F10091DF
:100C400068021091690220916A0230916B0201974B
:100C500059F0482959296A297B29CB01BA01602317
:100C600071238223932320C0802A912AA22AB32AA7
:100C700015C0482959296A297B29809168029091D9
:100C80006902A0916A02B0916B028A019B01082758
:100C900019272A273B27C901B80106C0CB01BA0191
:100CA000682979298A299B290E94A71008C1412F08
:100CB00050E0FA01E05EF109E531F10508F07FC08E
:100CC000EC58FF4F0C94021E1F70892F8F71002368
:100CD00031F00E945C11812F0E94221CE4C00E940E
:100CE0001E11812F0E94171CDEC0002311F121115B
:100CF000DAC0292F2F7181E090E0A0E0B0E0AC01D4
:100D0000BD0104C0440F551F661F771F2A95D2F7F7
:100D10008091680290916902A0916A02B0916B0281
:100D20008A019B01082719272A273B27C901B801F7
:100D300025C0223008F0B7C0DCCF002329F0892F6E
:100D40008F712EC00023D9F3892F8F710E941E113D
:100D5000AAC0002381F0292F2F7181E090E0A0E04C
:100D6000B0E0BC01CD0104C0660F771F881F991F3A
:100D70002A95D2F703C060E070E0CB010E94A71073
:100D800092C0002381F0192F1F71812F0E945C11E6
:100D900028E0129FC0011124836080936C02812F90
:100DA0000E945C1180C081E02F830E9443112F813B
:100DB000223008F478C082E00E94431174C00023FE
:100DC00039F0222309F4BBCF812F0E94881C6BC00D
:100DD000222309F4B9CF193349F43FEF83EC99E0AA
:100DE000315080409040E1F700C00000812F0E9408
:100DF0002C1C59C0323FB1F028F4303F49F0313F4C
:100E0000F9F028C0343FB9F058F0353F71F022C0F6
:100E1000002309F456C09091F80181E0892708C0A9
:100E200081E008270093F8014CC001114AC081E01D
:100E30008093F80146C0011144C01092F80141C0EE
:100E4000002329F08091F701882329F329C0222368
:100E500011F337C08091F7012223C1F0882341F0BC
:100E60009091F80181E089278093F8011092F701B1
:100E7000812F002319F00E94881C23C00E942C1C83
:100E800086E0F60111928A95E9F71BC08823C9F024
:100E9000011117C09091F80181E089278093F80132
:100EA0001092F7010EC0F8E0AF16B10441F04CF01B
:100EB0001AE0A11AB10822E0A216B10410F40E94AF
:100EC0008909EE2039F180916C0280FD23C0F60182
:100ED00012828595859585950E945C11C6010E94B8
:100EE000120280916C0285958595859528960FB69E
:100EF000F894DEBF0FBECDBFDF91CF911F910F9150
:100F0000FF90EF90DF90CF90BF90AF909F908F9029
:100F10000C941E1128960FB6F894DEBF0FBECDBFFD
:100F2000DF91CF911F910F91FF90EF90DF90CF90C5
:100F3000BF90AF909F908F9008959091BD0292FFC7
:100F40000DC0282F2871283019F4877F846006C0CF
:100F5000282F2471243011F48B7F886093FF0DC0FB
:100F6000282F2871283119F4877E846106C0282F24
:100F70002471243111F48B7E886194FD877E08955D
:100F8000282F277081E090E001C0880F2A95EAF7AA
:100F9000809590916E02892380936E020C94B80F15
:100FA000282F277081E090E001C0880F2A95EAF78A
:100FB00090916E02892B80936E020C94B80FCF93A0
:100FC000E82F873058F58091070190910801892B0F
:100FD00009F042C0CE2F80E40E94DD1390930801F7
:100FE00080930701892BB1F482E10E94B61390939C
:100FF000080180930701892B69F481E090E001C02A
:10100000880FCA95EAF780950E94B613909308015D
:101010008093070184E98093BC001EC090E0FC012E
:101020003797E730F105C0F4E757FF4F0C94021EE5
:10103000209A289811C0219A29980EC0229A2A989D
:101040000BC0239A2B9808C0529A5A9805C0539AFD
:101050005B9802C03E9A4698CF910895CF93DF9354
:10106000873008F047C08091070190910801892BD3
:1010700009F049C080E40E94DD1390930801809339
:101080000701892B11F080E031C083E10E94B61383
:101090009093080180930701892BA9F781E40E94AE
:1010A000DD139093080180930701892B61F784E891
:1010B0008093BC000E94C80EEC019091BC0097FD8B
:1010C0000EC00E94C80E8C1B9D0B84369105A8F3A0
:1010D0008EEF9FEF9093080180930701D4CF80910A
:1010E000BB008095109208011092070194E990933B
:1010F000BC000AC09FB18FB1807F869586959370A2
:10110000892B809501C080E0DF91CF910895EF9207
:10111000FF920F931F93CF93DF93CDB7DEB76797FF
:101120000FB6F894DEBF0FBECDBF4B8B5C8B6D8BC3
:101130007E8B8F8B0E891F8901151105C1F15F3FD1
:1011400011F44F3FA1F1E42EF12CA1E0B0E0042E08
:1011500001C0AA0F0A94EAF7852F90E0662319F0E0
:101160002091F80106C09C0127533E4FF9012081D0
:101170002A232223A9F046E0489F9001499F300D81
:101180001124F701E20FF31FEE0FFF1FED5EFE4F7C
:1011900040815181FC01E753FE4F9081A92B06C08D
:1011A000FC01E753FE4FA0958081A823A08386E031
:1011B000FE013D96DF01982F1D929A95E9F74D8724
:1011C0005E876F87198B088BDE01179601900D9251
:1011D0008A95E1F7CE0107960E94EC11811137C084
:1011E00086E0FE013796DE01119601900D928A95F8
:1011F000E1F7FF81E8856A857B856115710539F125
:10120000EF3F11F4FF3F19F12091FF0130E0C901D8
:101210000196877099274091300250E08417950716
:1012200079F1F983EA837D836C8396E0929FD00104
:10123000939FB00D1124A050BE4FFE013196019036
:101240000D929A95E1F78093FF010E94871116E0B5
:10125000809130029091FF01891711F1189FC00110
:10126000112480509E4F0E94EC118823C9F0809178
:10127000300290E001968770992780933002E8CF82
:10128000109279020E94041C1092FF011092300209
:10129000E9EFF1E086E0DF011D928A95E9F7D7CF0B
:1012A00067960FB6F894DEBF0FBECDBFDF91CF912A
:1012B0001F910F91FF90EF9008952091C7013091F9
:1012C000C8018217930771F09093C8018093C701FA
:1012D000E091BF02F091C002309721F00084F185C7
:1012E000E02D099408952091C5013091C60182171F
:1012F000930771F09093C6018093C501E091BF02FE
:10130000F091C002309721F00680F781E02D09941A
:101310000895E091BF02F091C002309721F0019052
:10132000F081E02D099480E008956F927F928F9272
:101330009F92AF92BF92CF92DF92EF92FF920F9364
:101340001F93CF93DF931F92CDB7DEB7742E622E1B
:10135000FC018281882331F16093BD0169830E9481
:10136000C80E9093C4018093C301698180E2860F07
:10137000883008F080C0677081E001C0880F6A95EE
:10138000EAF70F90DF91CF911F910F91FF90EF90AF
:10139000DF90CF90BF90AF909F908F907F906F9095
:1013A0000C94221C9091BD0196134AC04091C30138
:1013B0005091C4018FB7F894009174021091750296
:1013C00020917602309177028FBF48015901AA24FB
:1013D000BB246A01E12CF12C041B150B8C149D0419
:1013E000AE04BF0410F401501109083C110540F58A
:1013F00010E2170D9715B9F080E2890F883040F49C
:10140000977081E001C0880F9A95EAF70E94171C37
:10141000183048F481E0972D977001C0880F9A9595
:10142000EAF70E94221C862D0E94991D183018F59B
:10143000972D977081E001C0880F9A95EAF70AC04E
:1014400080E2860F8830B8F4677081E001C0880FB1
:101450006A95EAF70F90DF91CF911F910F91FF905E
:10146000EF90DF90CF90BF90AF909F908F907F9044
:101470006F900C94171C0F90DF91CF911F910F91DB
:10148000FF90EF90DF90CF90BF90AF909F908F90A4
:101490007F906F9008956091AB028CE090E00C9487
:1014A000BA1DCF93DF9326E0729FF001112434E53B
:1014B000839FE00DF11D1124E60FF11DEE0FFF1FBC
:1014C000E25AFE4FC591D491CE01C238D10549F1FF
:1014D000B0F4C133D10509F464C048F4C932D10570
:1014E00009F458C0CA32D10509F462C068C0C533D6
:1014F000D10509F448C0C933D10599F060C0C33E95
:10150000D10541F138F4C03ED10591F0C23ED1057C
:10151000B1F055C0C63ED10521F1C73ED10561F1FC
:101520004EC02091BD0220FD14C221FD12C213C283
:101530002091BD0220FF0FC289E390E00CC22091F0
:10154000BD0222FF08C28091BD0284FDB4C183EEBA
:1015500090E001C28091BD0282FFF5CF82EE90E063
:10156000FAC12091BD0223FFF6C18091BD0284FD26
:10157000A2C187EE90E0EFC18091BD0283FFF5CF5D
:1015800086EE90E0E8C12091BD0225FFE4C189E22A
:1015900090E0E1C12091BD0225FFDDC185E390E02F
:1015A000DAC12091BD0226FFD6C18AE290E0D3C104
:1015B0002091BD0226FFCFC181E390E0CCC1C115CF
:1015C00020E5D20708F047C0C11530E4D30708F082
:1015D00034C1C83ED10518F5C03ED10508F0BBC1E5
:1015E000C83AD10570F4C53AD10508F0B0C0C13091
:1015F000D10509F4B0C108F45EC1249708F45BC1B9
:10160000AAC1CF3BD10508F4ADC0C03CD10508F458
:1016100052C1FE01EE0FFF1FE25DFE4F02C1C11578
:1016200020E2D20760F4C11531E0D30708F093C17E
:10163000C03FD10508F43FC1CE0190658CC1C115F2
:1016400080E3D80708F0F0C0FE01FF70EE0FFF1F27
:10165000E255FD4FE6C0C11595E5D90708F044C035
:10166000C11524E5D20708F000C1C11532E5D30742
:1016700010F5C11581E5D80708F0E3C02C2F2370C1
:1016800081E090E002C0880F991F2A95E2F79C68DC
:101690009E0174E0369527957A95E1F72370922B99
:1016A000EC2FEF70E695E69530E2E39FF001112410
:1016B0008E2B9F2B50C18C2F86958695AE01437043
:1016C0005527C115D34508F0C1C090E2899F90010C
:1016D000112481E090E002C0880F991F4A95E2F73B
:1016E000822B932B9C6837C1C1152AE5D207A0F441
:1016F000C11539E5D30708F0C6C0C11586E5D8077E
:1017000008F4B8C0C11598E5D90708F4D4C09C2FD7
:101710008827806F906A1FC1C1152BE5D20708F496
:10172000CAC0CE01C1153CE5D30708F4C1C090562C
:101730008115904208F0BFC08D2F8F710E949D07C8
:10174000FE01FF27F0628F719F01382BAFC0C53AB1
:10175000D10509F4B3C0C63AD10509F0B2C082E898
:1017600090E4F9C0C83AD10509F4AEC0C93AD10530
:1017700009F4ADC0CA3AD10509F4ACC0CB3AD105E1
:1017800009F4ABC0CC3AD10509F4AAC0CB3BD105D2
:1017900009F4A9C0CC3BD10509F4A8C0CD3AD105C4
:1017A00009F4A7C0C03BD10509F4A6C0CE3AD105C3
:1017B00009F4A5C0CF3AD10509F4A4C0C13BD105B5
:1017C00009F4A3C0C23BD10509F4A2C0C33BD105B3
:1017D00009F4A1C0C43BD10509F4A0C0C53BD105A3
:1017E00009F49FC0C63BD10509F49EC0C73BD10593
:1017F00009F49DC0C83BD10509F49CC0C93BD10583
:1018000009F49BC0CD3BD10509F49AC0CE3BD1056C
:1018100009F499C0CA3BD10509F498C080E094E46A
:101820009AC08591949197C09E013327C901D3FF37
:1018300002C0986C90C0906C8EC0CE019F70906A70
:101840008AC09C2F8827816F906A85C090E2899F0B
:101850009001112481E090E002C0880F991F4A9501
:10186000E2F7822B932B9A6876C09C2F8827846F8F
:10187000906A71C08C2F0E949D078F7190E0982F05
:101880008827906268C08C2F8F700E949D07FE0190
:1018900094E0F695E7959A95E1F7EF70F0E0FE2F6A
:1018A000EE27F06A8F70806E9F01282BC90153C00C
:1018B0009927906650C080E090E04DC081E890E4A8
:1018C0004AC083E890E447C082EE94E444C089EEC5
:1018D00094E441C08AEE94E43EC085EB94E43BC0BE
:1018E00086EB94E438C083EB94E435C084EB94E455
:1018F00032C087EB94E42FC08CEC94E42CC08DECC8
:1019000094E429C083E895E426C08AE895E423C0DE
:1019100082E995E420C084E995E41DC081E296E463
:101920001AC083E296E417C084E296E414C085E20C
:1019300096E411C086E296E40EC087E296E40BC0FE
:101940008FE694E408C080E794E405C08AE296E458
:1019500002C080EE90E0DF91CF91089580E290E0A8
:1019600090930801809307018091C201811111C0F9
:101970001092B9008CE08093B80081E08093C2019E
:101980002FEF83ED90E3215080409040E1F700C0BD
:10199000000080E40E94DD1390930801809307010A
:1019A000892B09F040C080E00E94B6139093080193
:1019B00080930701892BB9F580E00E94B6139093BC
:1019C000080180930701892B71F58FE30E94B613FC
:1019D0009093080180930701892B29F584E980936E
:1019E000BC0080E40E94DD139093080180930701FE
:1019F000892BC9F48CE00E94B61390930801809360
:101A00000701892B81F480E00E94B61390930801AE
:101A100080930701892B39F48FE30E94B6139093CA
:101A200008018093070184E98093BC00809107013D
:101A3000089556985E9825982D9826982E98279860
:101A40002F988FEF90E09093890080938800909377
:101A50008B0080938A0090938D0080938C00259A50
:101A60002D9A2FEF80E792E0215080409040E1F7DF
:101A700000C00000269A2E9A2FEF80E792E02150B6
:101A800080409040E1F700C00000279A2F9A2FEF86
:101A900080E792E0215080409040E1F700C00000D4
:101AA00025982D982FEF80E792E0215080409040BC
:101AB000E1F700C0000026982E982FEF80E792E013
:101AC000215080409040E1F700C0000027982F98F7
:101AD00056985E9825982D9826982E9827982F9896
:101AE000089584B1807F84B985B1807F85B98AB13A
:101AF000837F8AB98BB1837F8BB93E9846980895CE
:101B000080B38C7080BB81B3836F81BB08959F923B
:101B1000AF92BF92CF92DF92EF92FF920F931F93FB
:101B2000CF93DF938091070190910801892B91F069
:101B30008091C1018F5F8093C10181110BC00E9410
:101B4000AE0C90E09093080180930701892B11F46B
:101B50000E94190D0FEA12E026EBE22E22E0F22E8F
:101B60006801C0E0912C97E0A92EAC0E8C2F0E944A
:101B7000DF078A2D0E94DF078C2F0E942E08F601B6
:101B80009081981721F08083BB24B39401C0B12CBD
:101B90008A2D0E942E08F7019081981719F08083F2
:101BA00081E001C080E0B82A9B280E94710DCF5FC0
:101BB000FFEFCF1ADF0A8FEFE81AF80AC73099F65D
:101BC0000E94C80E6AEF70E00E94EE1D9C01682F13
:101BD0008091C0018823E9F11092C001E091A9022F
:101BE000F091AA02DF011E9690E07BEF8AEFE82ECB
:101BF000F12C80818B3FA9F0482F50E0681728F026
:101C0000E901C41BD50BAE0106C06701C41AD50A91
:101C1000A601420F531F4233510514F0708301C0D7
:101C200091E03196EA17FB0721F79093C0019110DC
:101C300002C0911110C01092BF01A091A902B091F1
:101C4000AA029091C001E2ECF2E080E03EE03E0F9B
:101C500007C09110F0CF8091BF018111ECCF16C069
:101C6000E80129918E014081421741F04C914B3F90
:101C700021F46C93208391E001C081E011963196AC
:101C80003E13EECF9093C0018093BF01892DDF9169
:101C9000CF911F910F91FF90EF90DF90CF90BF9069
:101CA000AF909F90089580917B020895CF93DF932A
:101CB0002091A802211103C020919E0202C022306F
:101CC00011F02430E1F520910601222339F0209112
:101CD000BD0227FF03C060E222E002C068E021E00D
:101CE0002093E9002FEF3091E800215035FD06C028
:101CF00035ED3A95F1F700002111F5CF2091E8007C
:101D000025FF1DC0EC0180910601811105C040E056
:101D100050E068E070E003C070E040E050E0CE01C9
:101D20000E9432148091E8008E778093E80080E270
:101D3000FE01ACE7B2E001900D928A95E1F7DF91E8
:101D4000CF91089578941F920F920FB60F9211249D
:101D50008F939F93AF93BF9380917402909175027C
:101D6000A0917602B09177020196A11DB11D8093DA
:101D7000740290937502A0937602B0937702BF919C
:101D8000AF919F918F910F900FBE0F901F9018955C
:101D90002FB7F8948091740290917502A091760209
:101DA000B09177022FBF08951F920F920FB60F9236
:101DB00011248F939F93AF93BF938091C1028111A0
:101DC00013C08091740290917502A0917602B09137
:101DD00077024196A11DB11D809374029093750204
:101DE000A0937602B0937702BF91AF919F918F91AC
:101DF0000F900FBE0F901F9018952091060122237F
:101E000021F02091BD0227FD04C0FC013296089606
:101E100019C0262F2695269526952E31C0F4FC0153
:101E2000E20FF11D677081E090E001C0880F6A95B4
:101E3000EAF7809592818923828308953196E81785
:101E4000F90729F020812613F9CF1082F7CF0895E2
:101E500020910601222321F02091BD0227FD05C01B
:101E6000FC0132962FEF30E019C0262F26952695DB
:101E700026952E3120F5FC01E20FF11D677081E0FF
:101E800090E001C0880F6A95EAF79281892B8283DE
:101E900008952F3F39F03F5F363041F041914613AE
:101EA000F8CF0DC04111F7CF232FF5CF2F3F39F0D9
:101EB000FC01E20FF11D27FDFA9562830895089554
:101EC0006DEE7EEF80E090E00E94D81D60E082E041
:101ED00090E00E94BA1D60E083E090E00E94BA1D8D
:101EE000109270021092710210927202109273029C
:101EF00060E084E090E00E94BA1D60E085E090E040
:101F00000E94BA1D60E086E090E00E94BA1D6FEF6B
:101F100087E090E00E94BA1D40E050E0BA0188E0FE
:101F200090E00E94CC1D60E08DE090E00E94BA1D20
:101F300040E050E0BA0188E190E00E94CC1D60E0F2
:101F400087E190E00E94BA1D40E050E0BA018FE0C6
:101F500090E00E94CC1D40E050E0BA0183E190E0A7
:101F60000C94CC1D80916F02811110926F02089524
:101F700090916E0280917902892B20916D02982FA9
:101F8000922B9093D70180916F028823D9F0892BEF
:101F90008093D70180910601882331F08091BD02A2
:101FA00087FF02C08EE101C086E0E9EDF1E090E03C
:101FB000815028F021912223D9F39F5FF9CF91110D
:101FC0000E94B20FE091BF02F091C0023097A9F0D9
:101FD00080910601882359F08091BD0287FF07C0D8
:101FE0008091D7018093D80185E08093D70102804A
:101FF000F381E02D87ED91E009940895BF92CF928F
:10200000DF92EF92FF920F931F93CF93DF938C0198
:10201000C0907002D0907102E0907202F090730252
:102020008091680290916902A0916A02B0916B025E
:10203000C82AD92AEA2AFB2ACFE1D0E0D701C60173
:102040000C2E04C0B695A795979587950A94D2F75C
:1020500080FF07C0BC2EB8018C2F0E94510A019747
:1020600019F4219758F7B12C8B2DDF91CF911F9147
:102070000F91FF90EF90DF90CF90BF900895CF9396
:10208000DF93EC010E94FE0FBE010E94510ADF9116
:10209000CF910895292F220F920F990F890F682F42
:1020A000669566956695982F977085E0689FB00154
:1020B000112440E050E080E0FA01E60FF71FEF5CEA
:1020C000FD4F208130E0092E02C0369527950A94F5
:1020D000E2F721703327042E01C0220F0A94EAF799
:1020E000822B4F5F5F4F4530510531F70895292FFF
:1020F000220F920F990F890FA82FA695A695A69546
:10210000877051E001C0550F8A95EAF785E0A89FD6
:10211000D001112420E030E070E0F901EA0FFB1F4C
:10212000EF5CFD4F4081CB01022E02C09695879552
:102130000A94E2F781709927819584278523842763
:1021400080832F5F3F4F2530310539F708950F9376
:102150001F93AB01BC01CB01AA27BB270097A105A8
:10216000B10511F0E0E103C0DB01CA01E0E0092F95
:102170001A2F2B2F3327011511052105310519F0D1
:10218000E85FD901C8018C019D01F4E036952795DF
:1021900017950795FA95D1F7011511052105310518
:1021A00019F0EC5FD901C8018C019D01F2E0369570
:1021B000279517950795FA95D1F701151105210572
:1021C000310519F0EE5FD901C801B695A79597952D
:1021D0008795892B8A2B8B2B09F0EF5F56985E9899
:1021E00025982D9826982E9827982F988E2F90E036
:1021F000FC013197E730F105A8F4E057FF4F0C944C
:10220000021E259A2D9A0EC0259A2D9A269A2E9A4C
:1022100009C0259A2D9A04C0259A2D9A269A2E9A9D
:10222000279A2F9A409368025093690260936A023A
:1022300070936B021F910F910C94F61B0F931F93D9
:1022400041E050E060E070E004C0440F551F661F9D
:10225000771F8A95D2F7409550956095709580913B
:10226000680290916902A0916A02B0916B028A01A2
:102270009B01082319232A233B23C901B8011F917D
:102280000F910C94A71020916C028095822380936B
:102290006C02982F977079F430E0482F082E000CCC
:1022A000550B2417350739F08595859585950E943E
:1022B0001E1110926C0208950F931F9341E050E09D
:1022C00060E070E004C0440F551F661F771F8A95B9
:1022D000D2F78091680290916902A0916A02B09150
:1022E0006B028A019B01082B192B2A2B3B2BC9015E
:1022F000B8011F910F910C94A71060937002709316
:10230000710280937202909373020C94F61B809179
:1023100030029091FF01891719F08F5F8770FBCF12
:1023200008958091FE0182958F7009F054C08091CC
:10233000FB01882309F44FC080913002A091FF0176
:102340006091F9017091FA014091FC015091FD01F9
:10235000B6E08A1709F43FC090E041155105C1F17C
:102360007F3F11F46F3FA1F1B89FF001B99FF00DCD
:102370001124E050FE4F218172132AC02081621384
:1023800027C02281211124C02381348124173507DD
:1023900010F421503109241B350B283C3105C0F4C1
:1023A0002091FE012F7020612093FE0126E0289FDE
:1023B000F001299FF00D1124EB5FFD4F80818F709C
:1023C0008061808389EF91E00E9412020C94871152
:1023D00001968770BECF0895BF92CF92DF92EF92A1
:1023E000FF920F931F93CF93DF93CDB7DEB7619723
:1023F0000FB6F894DEBF0FBECDBF8C0185E0F801AB
:10240000DE011D9601900D928A95E1F7D8013C916D
:1024100011962C9111971296EC9012971396CD90DD
:10242000DC9014975091F9016091FA018091FC01C0
:102430009091FD01009709F44FC16F3F19F45F3F80
:1024400009F44AC1B090FB01BB2009F4ECC04091F3
:10245000FE01C816D90628F0F601E81BF90BCF01DA
:1024600004C0809590958C0D9D1DFF24F394883CAD
:10247000910548F0F12C407F09F09FC089EF91E071
:102480000E94120221C1842F807F09F044C0621390
:1024900012C0531310C0E1100EC04F704061409342
:1024A000FE0189EF91E00E9412028091FE01D801A5
:1024B00015968C932EC0CD2819F12F3F11F43F3F74
:1024C000F9F0FE2CE1101CC0809130024091FF0118
:1024D00056E0841709F458C090E0589FF001599FC6
:1024E000F00D1124E050FE4F6181261306C060817B
:1024F000361303C06281611103C001968770E9CF72
:10250000FE2CEE2009F421C18091FE0181608093B0
:10251000FE01F12C1AC162130AC0531308C0E11066
:1025200006C08091FE01D80115968C93B0C03D87FE
:102530002E878D859E850E94CF1B8823D1F1EE20AA
:10254000C1F12091FE01822F82958F7090E0029759
:1025500074F08091F9019091FA0198878F83198620
:10256000DB86CA862C87CE0107960E94120286E07F
:10257000F801A9EFB1E001900D928A95E1F70E9470
:102580009111FF24F394E1C03D872E878D859E85B0
:102590000E943F10292F22952F7030E02230310504
:1025A0000CF0C7C09F7009F0C1C0805E883008F48D
:1025B000CCC0C8010E941202E4CF621314C05313AE
:1025C00012C0E11010C08091FE01F8018583C8019E
:1025D0000E94120286E0E9EFF1E0DF011D928A9588
:1025E000E9F7FB2CB2C03D872E878D859E850E9422
:1025F000CF1B8823F1F2EE20E1F22091FE01822F21
:1026000082958F7090E002970CF4B1CF8091F90120
:102610009091FA019A8389831B82DD82CC822E837A
:10262000CE010196A2CFC816D90638F0C81AD90A29
:10263000B8ECCB16D10450F007C0809590958C0D66
:102640009D1D883C910510F0F12C3EC0FE2CEE2023
:1026500009F4AFCF621327C0531325C02091FE01A8
:1026600020FD18C0822F82958F70482F50E04115B1
:10267000510581F0F80125834F30510541F08F5FFE
:10268000982F9295907F822F8F70892B8583C80118
:102690000E94120286E0F801A9EFB1E001900D92CC
:1026A0008A95E1F752C03D872E878D859E850E94D1
:1026B000CF1B81115CCF8091FE0181608093FE0170
:1026C000C8010E94120241C0E9EFF1E086E0DF019B
:1026D0001D928A95E9F739C0EE2009F46ACF3D874B
:1026E0002E878D859E850E94CF1BF82E882309F4A6
:1026F00060CF86E0F801A9EFB1E001900D928A95D4
:10270000E1F78091F9019091FA010E943F109295B2
:102710009F70963041F48091F80191E08927809371
:10272000F8019093F7010E9491110FC081113DCFE4
:102730000CC0243031050CF03CCF9F7009F435CF2C
:10274000F8019581907F09F030CF8F2D61960FB6FB
:10275000F894DEBF0FBECDBFDF91CF911F910F91D7
:10276000FF90EF90DF90CF90BF900895CF93DF93CD
:102770008093BB0084E88093BC000E94C80EEC01EB
:102780009091BC0097FD0AC00E94C80E8C1B9D0B47
:1027900084369105A8F38EEF9FEF0CC02091B9000D
:1027A000287F81E090E0283211F480E090E091955C
:1027B00081959109DF91CF9108950F931F93CF9346
:1027C000DF93C82F1092BC0084EA8093BC000E9463
:1027D000C80E8C019091BC0097FD0AC00E94C80EE3
:1027E000801B910B84369105A8F38EEF9FEF2AC0D2
:1027F0009091B900987F983041F09091B900987FFE
:10280000903119F08FEF9FEF1DC0C093BB0084E89B
:102810008093BC000E94C80EEC019091BC0097FD13
:1028200008C00E94C80E8C1B9D0B84369105A8F32E
:10283000DCCF8091B900887F883111F0803411F7A6
:1028400080E090E0DF91CF911F910F910895CF9399
:10285000DF93EC0180EEFE01099581EEFE01DF9130
:10286000CF910994CF92DF92FF920F931F93CF9352
:10287000DF931F92CDB7DEB7F82E8B0199830E94AC
:102880005219998181111CC0CF2CD92E0115110527
:10289000B1F08091E80085FD0AC08091E8008E7754
:1028A0008093E8000E945219882381F309C0F60141
:1028B00081916F018093F10001501109E7CF80E011
:1028C0000F90DF91CF911F910F91FF90DF90CF90EC
:1028D00008951F93CF93DF93CDB7DEB7AA970FB6B6
:1028E000F894DEBF0FBECDBFE0EAF2E088E08E0FC5
:1028F0009091F10091938E13FBCF8091A1028330D0
:1029000009F460C030F4813071F0823009F49CC069
:10291000B3C08A3009F488C08B3009F46BC08930A9
:1029200009F0AAC020C08091A002813A09F0A4C099
:102930008091E800877F8093E8008091A4029091C5
:10294000A502892B21F460E28CE792E003C060E0ED
:1029500080E090E070E00E94D8198091E8008B77C9
:102960008093E80089C08091A002813209F084C080
:102970008091A4029091A502029708F07DC08091F9
:10298000E800877F8093E8008091E80082FD05C021
:1029900080919E028111F8CF6FC02091F300809149
:1029A000F20090E0922B029729F48091F1008B7F46
:1029B000813021F48091F10080937B028091E800C6
:1029C0008B7756C08091A002813A09F055C0809162
:1029D000A4029091A502892B09F04EC08091E800D5
:1029E000877F8093E8008091E80080FFFCCF809192
:1029F000060139C08091A0028132F1F58091A402D4
:102A00009091A502892BC1F58091E800877F809382
:102A1000E8000E9484198091A2028093060110921E
:102A200079020E94041C28C08091A002813221F505
:102A30008091E800877F8093E8000E94841980914C
:102A4000A30280937A0218C08091A002813AA1F477
:102A50008091E800877F8093E8008091E80080FF04
:102A6000FCCF80917A028093F1008091E8008E770C
:102A70008093E8000E9484198091E80083FFD6C10A
:102A80008091A0029091A102492F50E04A30510557
:102A900008F0CCC1FA01E956FF4F0C94021E8038B1
:102AA00021F0823809F0C2C108C080919C02909147
:102AB0009D02992389F082600FC08091A4028F70DB
:102AC000873008F0B3C18093E9008091EB0085FB6B
:102AD000882780F91092E9009091E800977F909301
:102AE000E8008093F1001092F10074C1282F2D7F2F
:102AF00009F09CC1882319F0823061F097C1809160
:102B0000A202813009F092C1933009F080E08093F5
:102B10009D022EC08091A20281112AC08091A40240
:102B20008F702FEF280F263008F080C18093E900C6
:102B30002091EB0020FF1CC0933021F48091EB002A
:102B4000806214C09091EB0090619093EB0021E0C3
:102B500030E0A90102C0440F551F8A95E2F7409367
:102B6000EA001092EA008091EB0088608093EB000D
:102B70001092E9008091E800877F2FC1811156C132
:102B80001091A2021F778091E3008078812B8093BF
:102B9000E3008091E800877F8093E8000E94841919
:102BA0008091E80080FFFCCF8091E30080688093F3
:102BB000E300111102C082E001C083E080939E0215
:102BC00035C18058823008F031C18091A2029091C5
:102BD000A3028C3D53E0950779F583E08A838AE26E
:102BE00089834FB7F894DE01139620E03EE051E26E
:102BF000E32FF0E050935700E49120FF03C0E295EB
:102C0000EF703F5FEF708E2F90E0EA3010F0C796C4
:102C100001C0C0968D939D932F5F243149F74FBF1C
:102C20008091E800877F8093E8006AE270E0CE013F
:102C300001960E94D819BDC04091A4025091A502EE
:102C4000292F332723303105B9F06CF421303105B9
:102C500009F4FBC02230310509F0E8C08BE390E0B5
:102C6000EFE5F3E054C02132310509F433C02232DC
:102C7000310509F43CC0DAC0992781309105D1F0C3
:102C80005CF4892B09F0D2C0E2EEF3E0E4918E2FE0
:102C900090E0E2EEF3E038C08230910599F00397BE
:102CA00009F0C4C0ECEAF3E0E4918E2F90E0ECEA86
:102CB000F3E02AC0EAECF3E0E4918E2F90E0EAEC36
:102CC000F3E022C0E2EBF3E0E4918E2F90E0E2EB40
:102CD000F3E01AC04115510509F4BCC0413051055B
:102CE00009F0A4C089E090E0EAE8F3E010C04115E3
:102CF000510509F4B4C04130510509F097C081E78E
:102D000090E0EEEAF2E003C0009709F48FC0209152
:102D1000E800277F2093E8002091A6023091A702C7
:102D20002817390708F4C90140E0009789F120917C
:102D30009E02222309F43DC02530D9F12091E800FC
:102D400023FD37C02091E80022FD2FC02091E8002C
:102D500020FFEBCF4091F3002091F20030E0342BC4
:102D6000009759F02830310540F444914093F10028
:102D7000319601972F5F3F4FF3CF41E02830310567
:102D800009F040E02091E8002E772093E800CDCFB5
:102D90004111CDCF0AC080919E02882351F0853029
:102DA00041F08091E80083FD04C08091E80082FF3B
:102DB000F2CF8091E8008B778093E80037C08038AD
:102DC000A9F58091E800877F8093E80080919F02B9
:102DD0008093F1008091E8008E778093E8000E9454
:102DE000841924C0811122C01091A2021230F0F483
:102DF0008091E800877F8093E80010939F020E94F3
:102E00008419111106C08091E30087FD02C081E0A2
:102E100001C084E080939E0242E061EC81E00E9468
:102E2000A31942E261EC82E00E94A3198091E800BC
:102E300083FF1AC08091E800877F8093E80080912B
:102E4000EB0080628093EB000FC082E190E0EAE942
:102E5000F3E05DCF89E090E0E1E7F3E058CF80E474
:102E600090E0EFE1F3E053CFAA960FB6F894DEBFFF
:102E70000FBECDBFDF91CF911F9108951F920F928A
:102E80000FB60F9211242F933F934F935F936F933D
:102E90007F938F939F93AF93BF93CF93DF93EF93E2
:102EA000FF93C091E900CF708091EC00D82FD170D2
:102EB00080FDD0E81092E9008091F000877F809338
:102EC000F00078940E9469141092E9008091F0005B
:102ED00088608093F000CD2BCF70C093E900FF9104
:102EE000EF91DF91CF91BF91AF919F918F917F91A2
:102EF0006F915F914F913F912F910F900FBE0F9067
:102F00001F901895E8EDF0E080818E7F808310920D
:102F1000E2001092DA001092E100A0EEB0E08C9195
:102F200081608C9380818F77808319BCA7EDB0E09E
:102F30008C918E7F8C9380818F7E8083109278021B
:102F40000895CF92DF92EF92FF920F931F93CF934A
:102F5000DF93C8EDD0E088818F7E8883E7EDF0E0D5
:102F600080818160808384E082BF81E080937802E9
:102F700088818E7F888302EE10E0F8011082109223
:102F8000DA0081EEC82ED12CF601108288818F776D
:102F9000888388818068888388818F7D888319BC35
:102FA00010929E0210929F0210929D0210929C021B
:102FB00090EEE92EF12CF70180818B7F8083888150
:102FC0008160888342E060E080E00E94A319F601FE
:102FD00080818E7F8083F801808181608083808101
:102FE00088608083F70180818E7F80838881806103
:102FF0008883DF91CF911F910F91FF90EF90DF9029
:10300000CF9008951F920F920FB60F9211242F9315
:103010003F934F935F936F937F938F939F93AF9360
:10302000BF93EF93FF938091E10082FF09C08091ED
:10303000E20082FF05C08091E1008B7F8093E10078
:103040008091DA0080FF2AC08091D80080FF26C0DE
:103050008091DA008E7F8093DA008091D90080FF22
:1030600018C080E189BD82E189BD09B400FEFDCFB1
:1030700081E080939E028091780281110FC00E94AE
:1030800082170E94A1178091E20084608093E20081
:1030900005C019BC10929E02109278028091E10046
:1030A00080FF17C08091E20080FF13C08091E20092
:1030B0008E7F8093E2008091E20080618093E20045
:1030C0008091D80080628093D80019BC85E08093FD
:1030D0009E028091E10084FF34C08091E20084FF71
:1030E00030C080E189BD82E189BD09B400FEFDCF19
:1030F0008091D8008F7D8093D8008091E1008F7EF1
:103100008093E1008091E2008F7E8093E2008091C5
:10311000E20081608093E20080919F02882311F099
:1031200084E007C08091E30087FD02C081E001C018
:1031300083E080939E02109279020E94041C0E94F8
:1031400089098091E10083FF27C08091E20083FF1D
:1031500023C08091E100877F8093E10082E080932B
:103160009E0210929F028091E1008E7F8093E10089
:103170008091E2008E7F8093E2008091E200806186
:103180008093E20042E060E080E00E94A319809119
:10319000F00088608093F000FF91EF91BF91AF91B4
:1031A0009F918F917F916F915F914F913F912F915F
:1031B0000F900FBE0F901F9018950895CF93DF9337
:1031C00000D01F92CDB7DEB79C019091A80291115B
:1031D00005C080919E02843049F504C0923011F000
:1031E000943021F584E089833B832A8382E08093B5
:1031F000E9008FEF9091E800815095FD06C095EDB4
:103200009A95F1F700008111F5CF8091E80085FFD4
:103210000DC040E050E063E070E0CE0101960E94F6
:1032200032148091E8008E778093E8000F900F9021
:103230000F90DF91CF910895CF93DF9300D01F922D
:10324000CDB7DEB720919E02243031F523E02983EB
:10325000805891099B838A8382E08093E9008FEFF5
:103260009091E800815095FD06C095ED9A95F1F793
:1032700000008111F5CF8091E80085FF0DC040E08E
:1032800050E063E070E0CE0101960E94321480911C
:10329000E8008E778093E8000F900F900F90DF91F9
:1032A000CF9108952091E4003091E50095E640919A
:1032B000EC00842F817040FF22C08091E80080FDE7
:1032C0001CC080919E02882391F0853091F08091FE
:1032D000EB0085FD10C04091E4005091E5004217DD
:1032E000530729F39A01915011F784E0089582E081
:1032F000089583E0089581E0089580E00895409165
:10330000E80042FFDECF08958091A00287FF11C040
:103310008091E80082FD05C080919E028111F8CF66
:1033200011C08091E8008B770BC080919E028823AA
:1033300049F08091E80080FFF8CF8091E8008E7717
:103340008093E8000895982F973058F59093E900FE
:10335000981739F07091EC002091ED005091F00039
:1033600003C0242F762F50E021FF19C03091EB00CD
:103370003E7F3093EB003091ED003D7F3093ED00C8
:103380003091EB0031603093EB007093EC002093B0
:10339000ED005093F0002091EE0027FF07C09F5FE3
:1033A000D3CF8F708093E90081E0089580E0089585
:1033B0002091A6023091A7022617370748F0611521
:1033C000710539F42091E8002E772093E80001C0C0
:1033D000B90140E061157105A9F120919E022223F7
:1033E00009F443C0253009F442C02091E80023FDD0
:1033F00040C02091E80022FD32C02091E80020FF6B
:10340000E9CF4091F3002091F20030E0342BFC0131
:10341000CF016115710559F02830310540F48191D3
:103420008093F100615071092F5F3F4FF1CF41E070
:103430002830310509F040E02091E8002E772093F4
:10344000E800C8CF4111C9CF0AC080919E028823ED
:1034500061F0853061F08091E80083FD0AC08091C1
:10346000E80082FFF2CF80E0089582E0089583E0D3
:10347000089581E00895CF93DF93CDB7DEB72A9703
:103480000FB6F894DEBF0FBECDBF84B7877F84BF71
:103490000FB6F894A89580916000886180936000D1
:1034A000109260000FBE80E880936100109261006E
:1034B00085B7806885BF85B7806885BF0E94821701
:1034C0000E94A1178091E20084608093E2007894CA
:1034D00080919E028823A1F01091E9001F709091C5
:1034E000EC00892F817090FD80E8182B1092E90084
:1034F0008091E80083FD0E9469141F701093E90019
:1035000082E084BD93E095BD9AEF97BD80936E00F5
:103510000E94AE0C90E090930801809307010E94F6
:10352000710D0E94800DAFEAB2E0E2ECF2E05EE0E5
:10353000F52EFE0E11921D92FE12FCCF8EE090E051
:103540000E94081E8093A9029093AA02FC010E9685
:103550002BEF2193E817F907E1F780E090E00E9454
:10356000B41D8D3E9E4F11F00E94600F8CE090E0E4
:103570000E94AC1D90E0A0E0B0E08093AB0290937D
:10358000AC02A093AD02B093AE0289EA80938000B2
:1035900089E08093810024982C983F988AB18F7C91
:1035A0008AB96E98479A8BB180638BB9769A0E94DC
:1035B000190D80E090E00E94B41D8D3E9E4F11F0E9
:1035C0000E94600F82E090E00E94AC1D8093D102C7
:1035D00084E090E00E94AC1D90E09093BE02809346
:1035E000BD0283E090E00E94AC1D682F70E080E097
:1035F00090E00E947D1189E091E09093C002809359
:10360000BF02EE24EA94CC24C394D12C90E1892EFD
:1036100022E1522E38E1A32EB12C40E4942E809169
:103620009E02853009F043C080919E02843009F1EA
:103630001092C1020FB6F894A895A09260000FBE38
:103640009092600083B7817F846083BF83B781607D
:1036500083BF7894889583B78E7F83BF0FB6F89425
:10366000A89580916000886180936000109260004E
:103670000FBE80919D02882391F20E94AE0C90E0D3
:1036800090930801809307010E94710D0E94800DA4
:10369000E2ECF2E01192FE12FDCF0E94870DE2EC07
:1036A000F2E08191811167C0FE12FBCFB8CF0E947A
:1036B000870DE2EDF2E0A2ECB2E000E010E0702F46
:1036C0006D9121912627B1F180E090E030E0782ED5
:1036D000A901082E02C0559547950A94E2F740FFCC
:1036E00025C089837A83C60102C0880F991F7A9406
:1036F000E2F73C01862F90E08621972121E0892B7B
:1037000009F420E02B830E94C80E8160782F9D83EE
:103710008C8349815A816B818D810E948708F801D1
:10372000EE52FD4F80816826608219C00196863076
:10373000910569F60F5F1F4F0E30110509F0BFCFDD
:10374000EE82EF8218860E94C80E8160782F9A87D9
:1037500089874E815F8168858A850E9487081091DC
:10376000D0020E948909181709F459CF0E948909CB
:103770008093D00254CF89BC59BC09B400FEFDCF60
:103780008091D8008F7D8093D8008091E000826086
:103790008093E0008091E00081FDFCCF40CF0E944B
:1037A0003F10292F2F7092959F70E92FF0E03297EC
:1037B000EE30F105B8F4EF55FF4F0C94021E803F38
:1037C00099F018F4803E70F40FC0843F59F40CC097
:1037D000803E50F0813F31F407C0822F8695869558
:1037E0008695089580E0089581E0089510926E0214
:1037F00010926D020E94B80F80E090E00E94730961
:1038000080E090E00C945D0980910601882331F0FE
:103810008091BD0287FF02C08EE101C086E0E9ED24
:10382000F1E0DF011D928A95E9F70C94F61B8823DD
:1038300041F08095909179028923809379020C94CC
:10384000B80F0895882339F090917902892B8093DD
:1038500079020C94B80F0895882309F458C0682F92
:10386000823869F40E94890981FF51C069E387EDBC
:1038700091E00E94280F0E94B80F69E30EC08338C0
:1038800091F40E94890980FF42C063E587ED91E0D1
:103890000E94280F0E94B80F63E587ED91E00E9417
:1038A000FD0E0C94B80F843869F40E94890982FFD8
:1038B0002EC067E487ED91E00E94280F0E94B80FA8
:1038C00067E4EBCF8CEF860F813A38F380E2860F06
:1038D000883070F4677081E090E001C0880F6A95CD
:1038E000EAF7809590917902892380937902D9CF64
:1038F0008BE5860F833020F480E090E00C94730910
:10390000685A673120F480E090E00C945D090895D6
:10391000882309F40DC1682F8238B1F40E94890907
:1039200081FD06C169E387ED91E00E94280F0E94A6
:10393000B80F2FEF81EE94E0215080409040E1F7E6
:1039400000C0000069E317C08338D9F40E948909D8
:1039500080FDEEC063E587ED91E00E94280F0E9494
:10396000B80F2FEF81EE94E0215080409040E1F7B6
:1039700000C0000063E587ED91E00E94FD0E0C940D
:10398000B80F8438B1F40E94890982FDD1C067E480
:1039900087ED91E00E94280F0E94B80F2FEF81EE73
:1039A00094E0215080409040E1F700C0000067E4BF
:1039B000E2CF8CEF860F813A28F487ED91E00E94E8
:1039C000280FDDCF80E2860F883068F4677081E0D1
:1039D00090E001C0880F6A95EAF790917902892BEF
:1039E00080937902CCCF8BE5860F833070F4653AF3
:1039F00029F0663A31F083E890E005C081E890E074
:103A000002C082E890E00C94730988E5860F873144
:103A100008F08EC0683A09F445C0693A09F445C017
:103A20006A3A09F445C06B3A09F445C06C3A09F4A6
:103A300045C06B3B09F445C06C3B09F445C06D3A89
:103A400009F445C0603B09F445C06E3A09F445C02D
:103A50006F3A09F445C0613B09F445C0623B09F483
:103A600045C0633B09F445C0643B09F445C0653B70
:103A700009F445C0663B09F445C0673B09F445C0FD
:103A8000683B09F445C0693B09F445C06D3B09F446
:103A900045C06E3B09F445C06A3B09F445C080E06F
:103AA00090E044C082EE90E041C089EE90E03EC0DC
:103AB0008AEE90E03BC085EB90E038C086EB90E06A
:103AC00035C083EB90E032C084EB90E02FC087EBF1
:103AD00090E02CC08CEC90E029C08DEC90E026C0EA
:103AE00083E891E023C08AE891E020C082E991E078
:103AF0001DC084E991E01AC081E292E017C083E220
:103B000092E014C084E292E011C085E292E00EC01F
:103B100086E292E00BC087E292E008C08FE690E078
:103B200005C080E790E002C08AE292E00C945D0953
:103B30000895CF93C82F0E94881CC93349F42FEFF2
:103B400083EC99E0215080409040E1F700C00000F4
:103B50008C2FCF910C942C1CF999FECF92BD81BD76
:103B6000F89A992780B50895A8E1B0E042E050E0C6
:103B70000C94E01D262FF999FECF92BD81BDF89AD5
:103B8000019700B4021639F01FBA20BD0FB6F894A1
:103B9000FA9AF99A0FBE08950396272F0E94BB1D2B
:103BA0000E94BA1D252F0E94BB1D242F0C94BB1D03
:103BB0000196272F0E94BB1D0C94BA1DDC01CB017E
:103BC000FC01F999FECF06C0F2BDE1BDF89A31962D
:103BD00000B40D9241505040B8F70895AA1BBB1B8A
:103BE00051E107C0AA1FBB1FA617B70710F0A61BFD
:103BF000B70B881F991F5A95A9F780959095BC011E
:103C0000CD010895EE0FFF1F0590F491E02D09946A
:103C1000CF93DF938230910510F482E090E0E09141
:103C2000E202F091E30220E030E0C0E0D0E0309723
:103C300011F14081518148175907C0F048175907C1
:103C400061F482819381209719F09B838A832BC032
:103C50009093E3028093E20226C02115310519F00A
:103C60004217530718F49A01BE01DF01EF010280E9
:103C7000F381E02DDCCF2115310509F1281B390B2B
:103C80002430310590F412968D919C911397611513
:103C9000710521F0FB019383828304C09093E302BA
:103CA0008093E202FD01329644C0FD01E20FF31F52
:103CB00081939193225031092D933C933AC02091E6
:103CC000E0023091E102232B41F420910201309176
:103CD00003013093E1022093E00220910001309132
:103CE00001012115310541F42DB73EB74091040182
:103CF00050910501241B350BE091E002F091E102A7
:103D0000E217F307A0F42E1B3F0B2817390778F0B2
:103D1000AC014E5F5F4F2417350748F04E0F5F1F11
:103D20005093E1024093E0028193919302C0E0E05E
:103D3000F0E0CF01DF91CF9108950F931F93CF93C0
:103D4000DF93009709F48CC0FC0132971382128232
:103D50000091E2021091E3020115110581F4208126
:103D60003181820F931F2091E0023091E1022817E8
:103D7000390779F5F093E102E093E00271C0D801D0
:103D800040E050E0AE17BF0750F412962D913C91E1
:103D90001397AD012115310509F1D901F3CF9D012B
:103DA000DA013383228360817181860F971F821726
:103DB000930769F4EC0128813981260F371F2E5FA4
:103DC0003F4F318320838A819B8193838283452B5C
:103DD00029F4F093E302E093E20242C01396FC93CD
:103DE000EE931297ED01499159919E01240F351FD1
:103DF000E217F30771F480819181840F951F029679
:103E000011969C938E938281938113969C938E93AB
:103E10001297E0E0F0E0D80112968D919C911397F3
:103E2000009719F0F8018C01F6CF8D919C919801C3
:103E30002E5F3F4F820F931F2091E0023091E102ED
:103E40002817390769F4309729F41092E302109289
:103E5000E20202C0138212821093E1020093E00298
:0E3E6000DF91CF911F910F910895F894FFCF3D
:103E6E000000E4022000012000530E560EDD181C47
:103E7E0019DE18000D010D020D030D040D050D00C8
:103E8E000C010C020C030C040C050C000B010B02B4
:103E9E000B030B040B050B000A010A020A030A04AA
:103EAE000A050A00090109020903090409050900A6
:103EBE0008010802080308040805080007010702A4
:103ECE00070307040705070006010602060306049A
:103EDE000605060005010502050305040505050096
:103EEE000401040204030404040504000301030294
:103EFE00030303040305030002010202020302048A
:103F0E000205020001010102010301040105010085
:0C3F1E0000010002000300040005000088
:00000001FF
